:020000040000FA
:0200000088284E
:0400080080318D288E
:02000E00A60842
:10001000031D0B280800F93000000000000000005C
:10002000FF3E031D0C28000000000000000000003F
:10003000A60B0B28080020009114911221009110AA
:10004000911623001F129F159F101F101E139E1242
:100050001E129E111E111E109D171D139D161D169A
:100060009C010F309B000800723021009900C030C5
:100070008B00911620308C0023008C0120008C0115
:1000800022009D171D1520000C16C830A600072061
:100090000C12C830A60007200C16C830A600072096
:1000A0000C12C830A60007200C16C830A600072086
:1000B0000C12C830A60007201B202000A201A301BB
:1000C000A401A501A601A1080319A60AA701A60873
:1000D0000319A70A27180C16271C0C12A601A00842
:1000E0000319A60AA701A6080319A70A27180C15C1
:1000F000271C0C11A20A0319A30A0319A40A031945
:10010000A50AA10803196228A10B62288C10622895
:100110002000A001A101803134282000911E090097
:10012000230019082000A8002808F83A0319A2287B
:10013000023A0319A628013A0319A628073A031917
:10014000AA2809008C146430A10009000C140130A5
:08015000A00009000C100900D9
:020000040001F9
:02000E00A4FF4D
:02001000FFDE11
:00000001FF
