:020000040000FA
:02000000F028E6
:040008008031F82823
:02000E00A70841
:10001000031D0B280800F93000000000000000005C
:1000200000000000000000000000000000000000D0
:10003000FF3E031D0C28000000000000000000002F
:1000400000000000000000000000000000000000B0
:10005000A70B0B2808002000911491122100911089
:10006000911623001F129F159F101F101E139E1222
:100070001E129E111E111E109D171D139D161D167A
:100080009C011F309B0008007A302100990020302D
:100090008C0023008C0120008C0122009D171D156F
:1000A0008B170B1721009512951115119514151426
:1000B0008B160B112000981318139816181298110C
:1000C00018119810960197011110210011142000A9
:1000D00018142500931513119314131021001115F2
:1000E00022000C16C8302000A700072022000C12A6
:1000F000C8302000A700072022000C16C8302000BE
:10010000A700072022000C122B202000A501A60129
:10011000A00803198828A001A701A3080319A70AAA
:10012000A801A7080319A80A281C982822000C1661
:10013000200028189D2822000C122000A108031975
:10014000B328A701A4080319A70AA801A70803193F
:10015000A80A281CAD2822000C1520002818B52854
:1001600022000C11B52822000C112000A308031D49
:10017000A303A408031DA4032608803AA700803027
:100180002702031DC52800302502031CDA28250894
:10019000003C26080318031DA61BD328A508031935
:1001A000A603A50388288C1D8828FF30A500A6017A
:1001B000A60388288C198828A1080319E42822009E
:1001C0008C102000A101EC2822008C1401302000AA
:1001D000A100A2011E30A4003230A500A60188288B
:1001E0002000A001A101A201A301A40180314428A3
:1001F0000B1D00290530200095000130A0000B11D7
:100200002000111D072922000C1020001111111CC3
:100210000B2918101110911E090023001908200045
:10022000AD002D08F83A03191F29023A03194F2986
:10023000013A03194F29073A031958295C2922006A
:100240000C142000181829298830AB001330AC009A
:10025000392918101708AA00AF01A9011608A90426
:100260002908AE002A08AF00AF362E0CAB002F08CD
:10027000AC002C082500920020002B0825009100DE
:100280002000960197011814A20A2208183A031DAB
:100290004C29A2011E30A4000130A3005C292200D9
:1002A0008C142000A2010130A1001E30A4005C29A2
:0C02B00022008C102000A1019112090016
:020000040001F9
:02000E00A4FF4D
:02001000FFDE11
:00000001FF
