:020000040000FA
:02000000BB281B
:040008008031C32858
:02000E00A50843
:10001000031D0B280800F93000000000000000005C
:1000200000000000000000000000000000000000D0
:10003000FF3E031D0C28000000000000000000002F
:1000400000000000000000000000000000000000B0
:10005000A50B0B280800200091149112210091108B
:10006000911623001F129F159F101F101E139E1222
:100070001E129E111E111E109D171D139D161D167A
:100080009C011F309B0008007A302100990020302D
:100090008C0023008C0120008C0122009D171D156F
:1000A0008B170B1721009512951115119514151426
:1000B0008B160B112000981318139816181298110C
:1000C00018119810960197011110210011142000A9
:1000D00018142500931513119314131021001115F2
:1000E00022000C16C8302000A500072022000C12A8
:1000F000C8302000A500072022000C16C8302000C0
:10010000A500072022000C122B202000A0080319B4
:100110008528A001A501A3080319A50AA601A50821
:100120000319A60A261C962822000C162000261861
:100130009B2822000C122000A1080319B128A50158
:10014000A4080319A50AA601A5080319A60A261CD6
:10015000AB2822000C1520002618B32822000C1111
:10016000B32822000C112000A308031DA303A40838
:10017000031DA40385282000A001A101A201A30161
:10018000A401803144280B1DCB28053020009500A8
:100190000130A0000B112000111DD22822008C106C
:1001A00020001111111CD62818101110911E0900E1
:1001B000230019082000AB002B08F83A0319EA289D
:1001C000023A03191A29013A03191A29073A03199D
:1001D0002329272922008C1420001818F42888309D
:1001E000A9001330AA00042918101708A800AD01AF
:1001F000A7011608A7042708AC002808AD00AD36F3
:100200002C0CA9002D08AA002A0825009200200025
:100210002908250091002000960197011814A20AD0
:100220002208183A031D1729A2010A30A40005303C
:10023000A300272922000C142000A2010130A100F4
:100240000A30A400272922000C102000A1019112DD
:020250000900A3
:020000040001F9
:02000E00A4FF4D
:02001000FFDE11
:00000001FF
